:0200000057297E
:10000800FF00030E8301B2000A08B3008A017008DA
:10001800A3007B08A2007C08A1007D08A0008B1C1F
:10002800A0282B08003C031D1B282A08013C0318A4
:100038001F28AA01AB01AA0A0319AB0A00302B0634
:10004800031D282801302A06031D61282130880055
:100058000330AC000030AD002D08003C031D3628ED
:100068002C08003C03184F28061386172C08870015
:100078000B30FB002630FC005D30FD00FD0B4228F4
:10008800FC0B4228FB0B4228000000000130AC02A8
:10009800031CAD033028061786170A308800103075
:1000A800FB003930FC000D30FD00FD0B5928FC0B1E
:1000B8005928FB0B59280000000000302B06031DAF
:1000C800672802302A06031DA0280C308800033058
:1000D800AC000030AD002D08003C031D75282C082D
:1000E800003C03188E28061386172C0887000B304F
:1000F800FB002630FC005D30FD00FD0B8128FC0B69
:100108008128FB0B8128000000000130AC02031C91
:10011800AD036F2806178617113088001030FB00D2
:100128003930FC000D30FD00FD0B9828FC0B982899
:10013800FB0B9828000000002308F0002208FB00B1
:100148002108FC002008FD0033088A00320E8300D5
:06015800FF0E7F0E0900FE
:10015E00710DF80DF90D7408F8027508031C750F72
:10016E00F902F00DF10D0F30FC00710DF80DF90DC7
:10017E007408701CC828F8027508031C750FF90264
:10018E00CD28F80775080318750FF907F00DF10D56
:10019E00FC0BBC287018D9287408F80775080318CA
:0801AE00750FF90700000800BD
:0E01B600831203132F088A002E08820008000F
:1001C400DB208A110A128000840AAE0A0319AF0ADE
:0801D400F003031DE2280800FE
:1001DC00831203137408003A031DFD287508003AB6
:1001EC00031DFD28FF30F0007F30F10056298312EB
:1001FC000313FD01F901F8017108700403190034AF
:10020C0071087506FA00FA1BFD09FB01F51F13298D
:10021C00F409F509F40A0319F50AF11F1A29F00972
:10022C00F109F00A0319F10A71087504FA00FA1BB6
:10023C002F29AF207B184229FD1F0034F009F1094A
:10024C00F00A0319F10AF809F909F80A0319F90A6D
:10025C000034F51F3E29F11B3A297108F90070088A
:10026C00F800F101F0012229F101F001F00A00344B
:10027C00F109F009FB0A1F29F80A0319F90A740895
:10028C007802031D222975087902031D2229F90120
:10029C00F801F00A0319F10AF11F22290000FF34BA
:0202AC00080048
:1002AE0083120313A401A501A601A701A801A901A8
:1002BE00AA01AB0183168701831287018316880179
:1002CE00831288018316061383120617831686136C
:1002DE00831286178316061486148B170B160113BA
:1002EE008312861C7C2A861C7C2A1730A6000030BE
:1002FE00A7008030F000803027067002031D892988
:10030E002608003C0318FC2986189629061C9629F7
:10031E008617861B9429061395290617F729803010
:10032E00F000803027067002031D9F292608033C2B
:10033E000318A42911308800A629213088000A301C
:10034E00F4000030F5002608F0002708F100EE203A
:10035E007008A8007108A9000A30F4000030F500FA
:10036E002608F0002708F100EE207808F000790842
:10037E00F1007008A4007108A500B001B1010030B1
:10038E003102031DCC293C3030020318F7298618A0
:10039E00D929061CD9298617861BD7290613D829D1
:1003AE000617F32906138617240887001A30FC0057
:1003BE00F830FD00FD0BE129FC0BE12900000617CA
:1003CE008613280887001A30FC00F830FD00FD0B5C
:1003DE00EE29FC0BEE290000B00A0319B10AC6295A
:1003EE000130A602031CA70380290F30A60000309F
:1003FE00A7008030F000803027067002031D092A06
:10040E002608003C03187C2A8618162A061C162A73
:10041E008617861B142A0613152A0617772A80308C
:10042E00F000803027067002031D1F2A2608033CA9
:10043E000318242A0A308800262A0C3088000A3035
:10044E00F4000030F5002608F0002708F100EE2039
:10045E007008A8007108A9000A30F4000030F500F9
:10046E002608F0002708F100EE207808F000790841
:10047E00F1007008A4007108A500B001B1010030B0
:10048E003102031D4C2A3C3030020318772A86189D
:10049E00592A061C592A8617861B572A0613582ACC
:1004AE000617732A06138617240887001A30FC00D5
:1004BE00F830FD00FD0B612AFC0B612A00000617C7
:1004CE008613280887001A30FC00F830FD00FD0B5B
:1004DE006E2AFC0B6E2A0000B00A0319B10A462AD6
:0E04EE000130A602031CA703002A77297D2AED
:02400E004A2F37
:00000001FF
